:100000000C945C000C9452020C942B020C9479001A
:100010000C9479000C9479000C9479000C9479007C
:100020000C9479000C9479000C9479000C9479006C
:100030000C9479000C9479000C9479000C9479005C
:100040000C94E1010C9479000C9479000C947900E3
:100050000C9479000C9479000C9479000C9479003C
:100060000C9479000C947900000000080002010053
:100070000003040700000000000000000000000072
:10008000250028002B0000000000240027002A0083
:10009000040404040404040402020202020203032E
:1000A0000303030301020408102040800102040836
:1000B000102001020408102011241FBECFEFD8E049
:1000C000DEBFCDBF11E0A0E0B1E0E4E5F7E002C0A3
:1000D00005900D92A630B107D9F721E0A6E0B1E076
:1000E00001C01D92A331B207E1F70E9479020C947E
:1000F000A8030C9400008091040190910501919552
:10010000819591099093050180930401089590E0F1
:10011000FC01E859FF4F2491FC01EC55FF4F34914D
:10012000FC01E057FF4FE491EE23C9F0222339F0A0
:10013000233001F1A8F4213019F1223029F1F0E047
:10014000EE0FFF1FE458FF4FA591B4918FB7F894BD
:10015000EC91611126C030953E233C938FBF0895EA
:100160002730A9F02830C9F0243049F78091800069
:100170008F7D03C0809180008F7780938000DFCFD8
:1001800084B58F7784BDDBCF84B58F7DFBCF809125
:10019000B0008F778093B000D2CF8091B0008F7D78
:1001A000F9CF3E2BDACF3FB7F89480910B019091B5
:1001B0000C01A0910D01B0910E0126B5A89B05C0C0
:1001C0002F3F19F00196A11DB11D3FBFBA2FA92FD6
:1001D000982F8827BC01CD01620F711D811D911DD3
:1001E00042E0660F771F881F991F4A95D1F708953F
:1001F0008F929F92AF92BF92CF92DF92EF92FF9237
:100200004B015C010E94D3006B017C010E94D30072
:100210006C197D098E099F09683E7340810591051F
:10022000A8F321E0821A9108A108B10888EEC80E4F
:1002300083E0D81EE11CF11C81149104A104B104D7
:1002400029F7FF90EF90DF90CF90BF90AF909F90F5
:100250008F90089508958A30910508F0B1C0FC018F
:10026000EC5CFE4F0C948E033E015A0170018A0132
:100270009C01AE01BC01D201D401DA0161E083E04E
:100280000E94870061E084E00E94870061E085E0D1
:100290000E94870061E086E00E94870061E087E0BD
:1002A0000E94870061E088E00E94870060E089E0AA
:1002B0000C94870060E083E00E94870061E084E0A6
:1002C0000E94870061E085E00E94870060E086E090
:1002D0000E94870060E087E00E94870060E0E3CF33
:1002E00061E083E00E94870061E084E00E94870073
:1002F00060E085E00E94870061E086E00E94870060
:1003000061E087E00E94870060E088E00E9487004B
:1003100061E0CDCF61E083E00E94870061E084E08E
:100320000E94870061E085E00E94870061E086E02E
:100330000E94870060E0E5CF60E083E00E948700D4
:1003400061E084E00E94870061E085E00E94870010
:1003500060E086E00E94870060E01FC061E083E00B
:100360000E94870060E084E00E94870061E085E0F1
:100370000E94870061E0EDCF61E083E00E9487008A
:1003800060E084E00E94870061E085E00E948700D1
:1003900061E086E00E94870061E087E00E948700BC
:1003A00061E0B3CF61E087CF61E083E00E94870026
:1003B00061E0E7CF61E083E00E94870061E0D3CF96
:1003C00008951F920F920FB60F9211242F933F930F
:1003D0008F939F93AF93BF938091070190910801F2
:1003E000A0910901B0910A013091060123E0230F89
:1003F0002D3758F50196A11DB11D2093060180935C
:10040000070190930801A0930901B0930A0180911C
:100410000B0190910C01A0910D01B0910E0101967C
:10042000A11DB11D80930B0190930C01A0930D01B0
:10043000B0930E01BF91AF919F918F913F912F91FA
:100440000F900FBE0F901F90189526E8230F02966D
:10045000A11DB11DD2CF1F920F920FB60F92112482
:100460002F933F934F935F936F937F938F939F93BC
:10047000AF93BF93EF93FF93E0910201F0910301DB
:100480000995FF91EF91BF91AF919F918F917F91CE
:100490006F915F914F913F912F910F900FBE0F90F1
:1004A0001F9018951F920F920FB60F9211242F9341
:1004B0003F934F935F936F937F938F939F93AF93EC
:1004C000BF93EF93FF93E0910001F0910101099533
:1004D000FF91EF91BF91AF919F918F917F916F911C
:1004E0005F914F913F912F910F900FBE0F901F90F2
:1004F0001895789484B5826084BD84B5816084BD8C
:1005000085B5826085BD85B5816085BD80916E00B1
:10051000816080936E0010928100809181008260E2
:10052000809381008091810081608093810080911F
:1005300080008160809380008091B100846080930E
:10054000B1008091B00081608093B00080917A000A
:10055000846080937A0080917A00826080937A0030
:1005600080917A00816080937A0080917A0080681F
:1005700080937A001092C10023E030E0F901EC553D
:10058000FF4F4491F901E057FF4F8491882399F080
:1005900090E0880F991FFC01EA57FF4FA591B49195
:1005A000FC01E458FF4F859194918FB7F894EC913A
:1005B000E42BEC938FBF2F5F3F4F2D303105F1F6C9
:1005C0008BE790E090930101809300018091690096
:1005D000836080936900E89ACAE0D0E004E610E006
:1005E00080E0E82E80E0F82E97EEC92E93E0D92E19
:1005F00080911101909112019C012F5F3F4F309328
:1006000012012093110104973CF1A0900F01B090CA
:10061000100161E070E080E090E00E94F8008091BD
:100620000401909105018A0D9B1D883E23E09207ED
:100630000CF05BC09093100180930F0180910F012B
:100640009091100197FF04C0D0921001C0920F0149
:10065000109212011092110161E08CE00E9487005B
:10066000A0900F01B0901001C501BE010E947A0355
:100670000E942B0160E08AE00E9487006BE070E03E
:1006800080E090E00E94F80061E08AE00E9487002C
:10069000C501B8010E947A035B01BE010E947A0382
:1006A000CB010E942B0160E08BE00E9487006BE091
:1006B00070E080E090E00E94F80061E08BE00E9432
:1006C0008700C5010E942B0160E08CE00E9487003A
:1006D0006BE070E080E090E00E94F800E114F1042B
:1006E00009F486CF0E94000083CF1092100110926F
:1006F0000F01A4CF97FB072E16F4009407D077FDC7
:1007000009D00E94940307FC05D03EF49095819592
:100710009F4F0895709561957F4F0895EE0FFF1FCD
:100720000590F491E02D0994AA1BBB1B51E107C071
:10073000AA1FBB1FA617B70710F0A61BB70B881F71
:10074000991F5A95A9F780959095BC01CD01089500
:04075000F894FFCF4B
:060754002A012A01010048
:00000001FF
