:100000000C945C000C9455020C942E020C94790014
:100010000C9479000C9479000C9479000C9479007C
:100020000C9479000C9479000C9479000C9479006C
:100030000C9479000C9479000C9479000C9479005C
:100040000C94E4010C9479000C9479000C947900E0
:100050000C9479000C9479000C9479000C9479003C
:100060000C9479000C947900000000080002010053
:100070000003040700000000000000000000000072
:10008000250028002B0000000000240027002A0083
:10009000040404040404040402020202020203032E
:1000A0000303030301020408102040800102040836
:1000B000102001020408102011241FBECFEFD8E049
:1000C000DEBFCDBF11E0A0E0B1E0ECEFF7E002C091
:1000D00005900D92A630B107D9F721E0A6E0B1E076
:1000E00001C01D92A131B207E1F70E947C020C947D
:1000F000FC030C9400008091000190910101919506
:10010000819591099093010180930001089590E0F9
:10011000FC01E859FF4F2491FC01EC55FF4F34914D
:10012000FC01E057FF4FE491EE23C9F0222339F0A0
:10013000233001F1A8F4213019F1223029F1F0E047
:10014000EE0FFF1FE458FF4FA591B4918FB7F894BD
:10015000EC91611126C030953E233C938FBF0895EA
:100160002730A9F02830C9F0243049F78091800069
:100170008F7D03C0809180008F7780938000DFCFD8
:1001800084B58F7784BDDBCF84B58F7DFBCF809125
:10019000B0008F778093B000D2CF8091B0008F7D78
:1001A000F9CF3E2BDACF3FB7F89480910B019091B5
:1001B0000C01A0910D01B0910E0126B5A89B05C0C0
:1001C0002F3F19F00196A11DB11D3FBFBA2FA92FD6
:1001D000982F8827BC01CD01620F711D811D911DD3
:1001E00042E0660F771F881F991F4A95D1F708953F
:1001F0008F929F92AF92BF92CF92DF92EF92FF9237
:100200000E94D3004B015C018AE0C82ED12CE12C66
:10021000F12C0E94D300681979098A099B09683E6C
:10022000734081059105A8F321E0C21AD108E108C5
:10023000F10888EE880E83E0981EA11CB11CC11441
:10024000D104E104F10429F7FF90EF90DF90CF9003
:10025000BF90AF909F908F90089508958A30910538
:1002600008F0B1C0FC01E95CFE4F0C94DB034101D6
:100270005D0173018D019F01B101BF01D501D7015E
:10028000DD0161E083E00E94870061E084E00E947C
:10029000870061E085E00E94870061E086E00E94BF
:1002A000870061E087E00E94870061E088E00E94AB
:1002B000870060E089E00C94870060E083E00E94A2
:1002C000870061E084E00E94870061E085E00E9491
:1002D000870060E086E00E94870060E087E00E947F
:1002E000870060E0E3CF61E083E00E94870061E087
:1002F00084E00E94870060E085E00E94870061E062
:1003000086E00E94870061E087E00E94870060E04D
:1003100088E00E94870061E0CDCF61E083E00E9429
:10032000870061E084E00E94870061E085E00E9430
:10033000870061E086E00E94870060E0E5CF60E032
:1003400083E00E94870061E084E00E94870061E012
:1003500085E00E94870060E086E00E94870060E000
:100360001FC061E083E00E94870060E084E00E949B
:10037000870061E085E00E94870061E0EDCF61E0E9
:1003800083E00E94870060E084E00E94870061E0D3
:1003900085E00E94870061E086E00E94870061E0BE
:1003A00087E00E94870061E0B3CF61E087CF61E022
:1003B00083E00E94870061E0E7CF61E083E00E9474
:1003C000870061E0D3CF08951F920F920FB60F926E
:1003D00011242F933F938F939F93AF93BF9380915B
:1003E000070190910801A0910901B0910A01309193
:1003F000060123E0230F2D3758F50196A11DB11DED
:10040000209306018093070190930801A0930901AE
:10041000B0930A0180910B0190910C01A0910D0104
:10042000B0910E010196A11DB11D80930B01909317
:100430000C01A0930D01B0930E01BF91AF919F915C
:100440008F913F912F910F900FBE0F901F90189595
:1004500026E8230F0296A11DB11DD2CF1F920F9245
:100460000FB60F9211242F933F934F935F936F9387
:100470007F938F939F93AF93BF93EF93FF93E091FD
:100480000401F09105010995FF91EF91BF91AF91A2
:100490009F918F917F916F915F914F913F912F919C
:1004A0000F900FBE0F901F9018951F920F920FB6CE
:1004B0000F9211242F933F934F935F936F937F93EA
:1004C0008F939F93AF93BF93EF93FF93E0910201BC
:1004D000F09103010995FF91EF91BF91AF919F9129
:1004E0008F917F916F915F914F913F912F910F90DD
:1004F0000FBE0F901F901895789484B5826084BDCC
:1005000084B5816084BD85B5826085BD85B5816017
:1005100085BD80916E00816080936E001092810095
:100520008091810082608093810080918100816050
:100530008093810080918000816080938000809111
:10054000B10084608093B1008091B000816080939D
:10055000B00080917A00846080937A0080917A0064
:10056000826080937A0080917A00816080937A0023
:1005700080917A00806880937A001092C10023E015
:1005800030E0F901EC55FF4F4491F901E057FF4F7E
:100590008491882399F090E0880F991FFC01EA5715
:1005A000FF4FA591B491FC01E458FF4F85919491C0
:1005B0008FB7F894EC91E42BEC938FBF2F5F3F4FF4
:1005C0002D303105F1F68BE790E090930301809395
:1005D000020180916900836080936900E89AE2EBF0
:1005E000F0E02491EEE9F0E084918823C1F090E0FE
:1005F000880F991FFC01EA57FF4FC591D491FC0168
:10060000E458FF4FA591B4919FB7F8948881E22FE9
:10061000E0958E2388838C91E823EC939FBF80E440
:10062000782E88248A9493E0992EA12CB12CCAE0CC
:10063000D0E024E6E22EF12C30E0C32E30E0D32EC1
:1006400070927C0080917A00806480937A0080911F
:100650007A0086FDFCCF80917800A0917900BA2FB6
:10066000A82F28EE33E00E94E103A50194010E9427
:10067000770389013093100120930F0161E08CE032
:100680000E948700C801BE010E94C7030E942E017C
:1006900060E08AE00E9487000E94F80061E08AE042
:1006A0000E948700C801B7010E94C7038B01BE01E9
:1006B0000E94C703CB010E942E0160E08BE00E94E4
:1006C00087000E94F80061E08BE00E948700C8016B
:1006D0000E942E0160E08CE00E9487000E94F800DA
:1006E000C114D10409F4ACCF0E940000A9CF052E9B
:1006F00097FB1EF400940E948E0357FD07D00E94C2
:10070000960307FC03D04EF40C948E03509540954D
:10071000309521953F4F4F4F5F4F089590958095AD
:10072000709561957F4F8F4F9F4F0895A1E21A2ECC
:10073000AA1BBB1BFD010DC0AA1FBB1FEE1FFF1F85
:10074000A217B307E407F50720F0A21BB30BE40BD5
:10075000F50B661F771F881F991F1A9469F760951C
:100760007095809590959B01AC01BD01CF010895D6
:10077000A29FB001B39FC001A39F700D811D1124E2
:10078000911DB29F700D811D1124911D089597FB3D
:10079000072E16F4009407D077FD09D00E94E803D5
:1007A00007FC05D03EF4909581959F4F0895709574
:1007B00061957F4F0895EE0FFF1F0590F491E02D96
:1007C00009940E94B803B7FF0895821B930B089504
:1007D000AA1BBB1B51E107C0AA1FBB1FA617B70767
:1007E00010F0A61BB70B881F991F5A95A9F7809583
:0C07F0009095BC01CD010895F894FFCF56
:0607FC0001002D012D019A
:107E0000112484B714BE81FFF0D085E080938100F7
:107E100082E08093C00088E18093C10086E0809377
:107E2000C20080E18093C4008EE0C9D0259A86E02C
:107E300020E33CEF91E0309385002093840096BBD3
:107E4000B09BFECF1D9AA8958150A9F7CC24DD24C4
:107E500088248394B5E0AB2EA1E19A2EF3E0BF2EE7
:107E6000A2D0813461F49FD0082FAFD0023811F036
:107E7000013811F484E001C083E08DD089C08234E0
:107E800011F484E103C0853419F485E0A6D080C0E4
:107E9000853579F488D0E82EFF2485D0082F10E0AE
:107EA000102F00270E291F29000F111F8ED06801E7
:107EB0006FC0863521F484E090D080E0DECF843638
:107EC00009F040C070D06FD0082F6DD080E0C81688
:107ED00080E7D80618F4F601B7BEE895C0E0D1E017
:107EE00062D089930C17E1F7F0E0CF16F0E7DF06D8
:107EF00018F0F601B7BEE89568D007B600FCFDCFD4
:107F0000A601A0E0B1E02C9130E011968C91119780
:107F100090E0982F8827822B932B1296FA010C0160
:107F200087BEE89511244E5F5F4FF1E0A038BF0790
:107F300051F7F601A7BEE89507B600FCFDCF97BE46
:107F4000E89526C08437B1F42ED02DD0F82E2BD052
:107F50003CD0F601EF2C8F010F5F1F4F84911BD097
:107F6000EA94F801C1F70894C11CD11CFA94CF0C13
:107F7000D11C0EC0853739F428D08EE10CD085E9AC
:107F80000AD08FE07ACF813511F488E018D01DD067
:107F900080E101D065CF982F8091C00085FFFCCF94
:107FA0009093C60008958091C00087FFFCCF809118
:107FB000C00084FD01C0A8958091C6000895E0E648
:107FC000F0E098E1908380830895EDDF803219F02E
:107FD00088E0F5DFFFCF84E1DECF1F93182FE3DFCA
:107FE0001150E9F7F2DF1F91089580E0E8DFEE27F6
:047FF000FF270994CA
:027FFE00040479
:0400000300007E007B
:00000001FF
