:100000000C945C000C946A010C9443010C947900EC
:100010000C9479000C9479000C9479000C9479007C
:100020000C9479000C9479000C9479000C9479006C
:100030000C9479000C9479000C9479000C9479005C
:100040000C94F9000C9479000C9479000C947900CC
:100050000C9479000C9479000C9479000C9479003C
:100060000C9479000C947900000000080002010053
:100070000003040700000000000000000000000072
:10008000250028002B0000000000240027002A0083
:10009000040404040404040402020202020203032E
:1000A0000303030301020408102040800102040836
:1000B000102001020408102011241FBECFEFD8E049
:1000C000DEBFCDBF11E0A0E0B1E0E4E2F6E002C0A7
:1000D00005900D92A630B107D9F721E0A6E0B1E076
:1000E00001C01D92A131B207E1F70E9491010C9469
:1000F00010030C94000080910401909105019195EA
:10010000819591099093050180930401089590E0F1
:10011000FC01E859FF4F2491FC01EC55FF4F34914D
:10012000FC01E057FF4FE491EE23C9F0222339F0A0
:10013000233001F1A8F4213019F1223029F1F0E047
:10014000EE0FFF1FE458FF4FA591B4918FB7F894BD
:10015000EC91611126C030953E233C938FBF0895EA
:100160002730A9F02830C9F0243049F78091800069
:100170008F7D03C0809180008F7780938000DFCFD8
:1001800084B58F7784BDDBCF84B58F7DFBCF809125
:10019000B0008F778093B000D2CF8091B0008F7D78
:1001A000F9CF3E2BDACF3FB7F89480910B019091B5
:1001B0000C01A0910D01B0910E0126B5A89B05C0C0
:1001C0002F3F19F00196A11DB11D3FBFBA2FA92FD6
:1001D000982F8827BC01CD01620F711D811D911DD3
:1001E00042E0660F771F881F991F4A95D1F708953F
:1001F00008951F920F920FB60F9211242F933F93E1
:100200008F939F93AF93BF938091070190910801C3
:10021000A0910901B0910A013091060123E0230F5A
:100220002D3758F50196A11DB11D2093060180932D
:10023000070190930801A0930901B0930A018091EE
:100240000B0190910C01A0910D01B0910E0101964E
:10025000A11DB11D80930B0190930C01A0930D0182
:10026000B0930E01BF91AF919F918F913F912F91CC
:100270000F900FBE0F901F90189526E8230F02963F
:10028000A11DB11DD2CF1F920F920FB60F92112454
:100290002F933F934F935F936F937F938F939F938E
:1002A000AF93BF93EF93FF93E0910201F0910301AD
:1002B0000995FF91EF91BF91AF919F918F917F91A0
:1002C0006F915F914F913F912F910F900FBE0F90C3
:1002D0001F9018951F920F920FB60F9211242F9313
:1002E0003F934F935F936F937F938F939F93AF93BE
:1002F000BF93EF93FF93E0910001F0910101099505
:10030000FF91EF91BF91AF919F918F917F916F91ED
:100310005F914F913F912F910F900FBE0F901F90C3
:100320001895789484B5826084BD84B5816084BD5D
:1003300085B5826085BD85B5816085BD80916E0083
:10034000816080936E0010928100809181008260B4
:1003500080938100809181008160809381008091F1
:1003600080008160809380008091B10084608093E0
:10037000B1008091B00081608093B00080917A00DC
:10038000846080937A0080917A00826080937A0002
:1003900080917A00816080937A0080917A008068F1
:1003A00080937A001092C10023E030E0F901EC550F
:1003B000FF4F4491F901E057FF4F8491882399F052
:1003C00090E0880F991FFC01EA57FF4FA591B49167
:1003D000FC01E458FF4F859194918FB7F894EC910C
:1003E000E42BEC938FBF2F5F3F4F2A303105F1F69E
:1003F0008BE790E090930101809300018091690068
:10040000836080936900E89AC0E0D0E009E010E0E2
:1004100080910F019091100120910401309105010C
:10042000820F931F8A3091051CF5909310018093E1
:100430000F0180910F019091100197FF04C010935C
:10044000100100930F01E0910F01F0911001EA30CB
:10045000F10578F5E25DFD4F0C940A033D0284023C
:100460009A02B402C602D802E602FC02FE020403AB
:100470001092100110920F01DCCF61E083E00E9426
:10048000870061E084E00E94870061E085E00E94CF
:10049000870061E086E00E94870061E087E00E94BB
:1004A000870061E088E00E94870060E089E00E94A8
:1004B00087000E94D3004B015C0188EEC82E83E0C8
:1004C000D82EE12CF12C0E94D300681979098A09F1
:1004D0009B09683E734081059105A8F321E0C21A8B
:1004E000D108E108F10888EE880E83E0981EA11C6F
:1004F000B11CC114D104E104F10429F7209709F4D7
:1005000087CF0E94000084CF60E083E00E948700D4
:1005100061E084E00E94870061E085E00E9487003E
:1005200060E086E00E94870060E087E00E9487002C
:1005300060E0B8CF61E083E00E94870061E084E082
:100540000E94870060E085E00E94870061E086E00D
:100550000E94870061E087E00E94870060E088E0F9
:100560000E94870061E0A2CF61E083E00E948700E3
:1005700061E084E00E94870061E085E00E948700DE
:1005800061E086E00E94870060E0E5CF60E083E004
:100590000E94870061E084E00E94870061E085E0BE
:1005A0000E94870060E086E00E94870060E01FC034
:1005B00061E083E00E94870060E084E00E948700A1
:1005C00061E085E00E94870061E0EDCF61E083E0BB
:1005D0000E94870060E084E00E94870061E085E07F
:1005E0000E94870061E086E00E94870061E087E06A
:1005F0000E94870061E0B3CF61E087CF61E083E0D4
:100600000E94870061E0E7CF61E083E00E948700FD
:1006100061E0D3CFEE0FFF1F0590F491E02D099418
:04062000F894FFCF7C
:06062400F800F8000100DF
:00000001FF
