:100000000C945D000C94A3020C947C020C9485006B
:100010000C9485000C9485000C9485000C9485004C
:100020000C9485000C9485000C9485000C94CA02F5
:100030000C9485000C9485000C9485000C9485002C
:100040000C9432020C9485000C9485000C9485006D
:100050000C9485000C9485000C9485000C9485000C
:100060000C9485000C9485000000000024002700FB
:100070002A0000000000250028002B0004040404CE
:100080000404040402020202020203030303030342
:10009000010204081020408001020408102001021F
:1000A00004081020000000080002010000030407FB
:1000B0000000000000000000350511241FBECFEF36
:1000C000D8E0DEBFCDBF11E0A0E0B1E0ECEEFBE098
:1000D00002C005900D92A630B107D9F721E0A6E045
:1000E000B1E001C01D92AC33B207E1F710E0CDE5FD
:1000F000D0E004C02197FE010E94D305CC35D10782
:10010000C9F70E9486030C94F4050C94000080E467
:1001100080937C0080917A00806480937A00809143
:100120007A0086FDFCCF8091780090917900089547
:100130008091040190910501919581959109909389
:10014000050180930401089590E0FC01EC55FF4FF8
:100150002491FC01E057FF4F3491FC01E458FF4F1C
:10016000E491EE23C9F0222339F0233001F1A8F401
:10017000213019F1223029F1F0E0EE0FFF1FEE5887
:10018000FF4FA591B4918FB7F894EC91611126C0FF
:1001900030953E233C938FBF08952730A9F0283037
:1001A000C9F0243049F7809180008F7D03C0809191
:1001B00080008F7780938000DFCF84B58F7784BDF8
:1001C000DBCF84B58F7DFBCF8091B0008F7780939C
:1001D000B000D2CF8091B0008F7DF9CF3E2BDACF27
:1001E000CF93DF9390E0FC01E057FF4F24918458B8
:1001F0009F4FFC0184918823D1F090E0880F991FD4
:10020000FC01E859FF4FA591B491FC01EE58FF4F56
:10021000C591D49161110EC09FB7F8948C91E22FD3
:10022000E0958E238C932881E223E8839FBFDF91A2
:10023000CF9108958FB7F894EC91E22BEC938FBF98
:10024000F6CF3FB7F89480910D0190910E01A091E7
:100250000F01B091100126B5A89B05C02F3F19F0E2
:100260000196A11DB11D3FBFBA2FA92F982F882736
:10027000BC01CD01620F711D811D911D42E0660F11
:10028000771F881F991F4A95D1F708958F929F92E3
:10029000AF92BF92CF92DF92EF92FF920E94210124
:1002A0004B015C018AE0C82ED12CE12CF12C0E947C
:1002B0002101681979098A099B09683E7340810503
:1002C0009105A8F321E0C21AD108E108F10888EEEF
:1002D000880E83E0981EA11CB11CC114D104E10456
:1002E000F10429F7FF90EF90DF90CF90BF90AF908F
:1002F0009F908F90089508958A30910508F0B1C0BD
:10030000FC01EB57FE4F0C94D3058F01AB01C101EB
:10031000DB01ED01FF010D02230225022B0261E04A
:1003200083E00E94A40061E084E00E94A40061E0F8
:1003300085E00E94A40061E086E00E94A40061E0E4
:1003400087E00E94A40061E088E00E94A40060E0D1
:1003500089E00C94A40060E083E00E94A40061E0C6
:1003600084E00E94A40061E085E00E94A40060E0B7
:1003700086E00E94A40060E087E00E94A40060E0A4
:10038000E3CF61E083E00E94A40061E084E00E948A
:10039000A40060E085E00E94A40061E086E00E9485
:1003A000A40061E087E00E94A40060E088E00E9471
:1003B000A40061E0CDCF61E083E00E94A40061E091
:1003C00084E00E94A40061E085E00E94A40061E056
:1003D00086E00E94A40060E0E5CF60E083E00E9438
:1003E000A40061E084E00E94A40061E085E00E9436
:1003F000A40060E086E00E94A40060E01FC061E00D
:1004000083E00E94A40060E084E00E94A40061E018
:1004100085E00E94A40061E0EDCF61E083E00E94EE
:10042000A40060E084E00E94A40061E085E00E94F6
:10043000A40061E086E00E94A40061E087E00E94E1
:10044000A40061E0B3CF61E087CF61E083E00E9468
:10045000A40061E0E7CF61E083E00E94A40061E0D6
:10046000D3CF08951F920F920FB60F9211242F939E
:100470003F938F939F93AF93BF9380910901909186
:100480000A01A0910B01B0910C013091080123E009
:10049000230F2D3758F50196A11DB11D209308019A
:1004A0008093090190930A01A0930B01B0930C0172
:1004B00080910D0190910E01A0910F01B09110015A
:1004C0000196A11DB11D80930D0190930E01A09383
:1004D0000F01B0931001BF91AF919F918F913F9108
:1004E0002F910F900FBE0F901F90189526E8230FA5
:1004F0000296A11DB11DD2CF1F920F920FB60F927F
:1005000011242F933F934F935F936F937F938F9318
:100510009F93AF93BF93EF93FF93E0910201F0910C
:1005200003010995FF91EF91BF91AF919F918F9139
:100530007F916F915F914F913F912F910F900FBEDF
:100540000F901F9018951F920F920FB60F921124C3
:100550002F933F934F935F936F937F938F939F93CB
:10056000AF93BF93EF93FF93E0910001F0910101EE
:100570000995FF91EF91BF91AF919F918F917F91DD
:100580006F915F914F913F912F910F900FBE0F9000
:100590001F9018951F920F920FB60F9211242F9350
:1005A0003F934F935F936F937F938F939F93AF93FB
:1005B000BF93CF93DF93EF93FF9380910701C09197
:1005C0000601D0E087FF24C01092850010928400BD
:1005D000809107018F5F8093070180910701082EAA
:1005E000000C990B8C179D0724F4809107018C3027
:1005F000C4F18091840090918500049680349C49D8
:1006000008F47AC08091840090918500049676C0A9
:1006100080910701082E000C990B8C179D07C4F6DA
:10062000E09107018E2FEE0F990BFC01EE0FFF1FDB
:10063000E80FF91FEF5EFE4F808186FFC9CFE09182
:1006400007018E2FEE0F990BFC01EE0FFF1FE80F35
:10065000F91FEF5EFE4F808160E08F730E94A4005F
:10066000B7CF2091840030918500E09107018E2F53
:10067000EE0F990BFC01EE0FFF1FE80FF91FEF5E65
:10068000FE4F81819281820F931F90938900809306
:100690008800E09107018E2FEE0F990BFC01EE0F01
:1006A000FF1FE80FF91FEF5EFE4F808186FF11C02C
:1006B000E09107018E2FEE0F990BFC01EE0FFF1F4B
:1006C000E80FF91FEF5EFE4F808161E08F730E949B
:1006D000A400FF91EF91DF91CF91BF91AF919F91D6
:1006E0008F917F916F915F914F913F912F910F90DB
:1006F0000FBE0F901F90189580E49CE9909389009D
:10070000809388008FEF80930701E3CF789484B5BE
:10071000826084BD84B5816084BD85B5826085BDFD
:1007200085B5816085BD80916E00816080936E008B
:10073000109281008091810082608093810080917D
:10074000810081608093810080918000816080932E
:1007500080008091B10084608093B1008091B000EE
:1007600081608093B00080917A00846080937A00E9
:1007700080917A00826080937A0080917A00816013
:1007800080937A0080917A00806880937A0010923A
:10079000C100C3E061E08C2F0E94F000CF5FCD303C
:1007A000C9F788E990E0909301018093000180915E
:1007B0006900836080936900E89A809135018C30EC
:1007C00008F051C061E08DE00E94F0008091350199
:1007D000282F30E0F901EE0FFF1FE20FF31FEF5E4D
:1007E000FE4F9081907C9D60908310923601109214
:1007F00037012CE0622F0E94B305829FB0011124C3
:1008000030E020E0AB01420F531FFA01EE0FFF1F53
:10081000E40FF51FEF5EFE4F908196FD16C02F5F2F
:100820003F4F2C30310571F781110FC010928000BD
:1008300082E0809381001092850010928400B19A2A
:1008400080916F00826080936F00E09135018E2F60
:1008500090E0FC01EE0FFF1FE80FF91FEF5EFE4F67
:1008600080818064808360E08EE00E94F000CC2470
:10087000CA9483E0D82EE12CF12C98E8292E312C53
:10088000C8E5D2E024EB822E912CA12CB12C0E9441
:10089000870025EB30E0DC010E94D905A701960115
:1008A0000E945005290130933B0120933A010E9498
:1008B000870023E630E0DC010E94D905A7019601FC
:1008C0000E945005BA01A901435D5F4F6F4F7F4FF2
:1008D00050933901409338018091040190910501B2
:1008E000019681F484EB90E08419950990933B0183
:1008F00080933A018CEB90E0841B950B9093390127
:100900008093380161E08CE00E94A40000913A01DC
:1009100010913B01C8016AE070E00E94BF050E948F
:100920007C0160E08AE00E94A4000E94460161E030
:100930008AE00E94A400C80164E670E00E94BF053E
:100940008B016AE070E00E94BF05CB010E947C0130
:1009500060E08BE00E94A4000E94460161E08BE011
:100960000E94A400C8010E947C0160E08CE00E940B
:10097000A4000E944601A0913801B0913901A03233
:1009800032E0B307B4F5809136012101481A5108CD
:1009900087FD5394440C551C440C551C052C000C2D
:1009A00066087708809137019E01281B310987FD71
:1009B0003395220F331F220F331F032E000C440BDD
:1009C000550B2419350946095709A53BB10514F003
:1009D000A4EBB0E0B7FF02C0B0E0A0E00E947A054F
:1009E000A50194010E945005420E531E641E751EFF
:1009F000D201409135014C3080F580913601910152
:100A0000281B310987FD3395C901880F991F880F6D
:100A1000991FA817B90784F0809137019E01281B00
:100A2000310987FD3395C901880F991F880F991FD8
:100A3000A817B9070CF4CD010297880F991F6FB75B
:100A4000F89450E09A01220F331F240F351FF9014B
:100A5000EF5EFE4F928381836FBF80E090E0892B31
:100A600009F415CF0E94000012CF809106018C304E
:100A700098F491E0980F909306018093350190E0EF
:100A8000FC01EE0FFF1FE80FF91FEF5EFE4F88EB32
:100A90009BE09283818308958FEF809335010895C1
:100AA000052E97FB1EF400940E94670557FD07D0A2
:100AB0000E94820507FC03D04EF40C946705509504
:100AC0004095309521953F4F4F4F5F4F089590953A
:100AD0008095709561957F4F8F4F9F4F08950E942D
:100AE000A405A59F900DB49F900DA49F800D911D0E
:100AF00011240895B7FF0C946F050E946F05821BA7
:100B0000930B0895A1E21A2EAA1BBB1BFD010DC079
:100B1000AA1FBB1FEE1FFF1FA217B307E407F507AD
:100B200020F0A21BB30BE40BF50B661F771F881F89
:100B3000991F1A9469F760957095809590959B011F
:100B4000AC01BD01CF010895A29FB001B39FC001C8
:100B5000A39F700D811D1124911DB29F700D811DE9
:100B60001124911D0895991B79E004C0991F9617CF
:100B700008F0961B881F7A95C9F78095089597FB12
:100B8000072E16F4009407D077FD09D00E94E005E7
:100B900007FC05D03EF4909581959F4F0895709580
:100BA00061957F4F0895EE0FFF1F0590F491E02DA2
:100BB00009940E94A405B7FF0895821B930B089522
:100BC000AA1BBB1B51E107C0AA1FBB1FA617B70773
:100BD00010F0A61BB70B881F991F5A95A9F780958F
:0C0BE0009095BC01CD010895F894FFCF62
:060BEC007B017B0101000A
:107E0000112484B714BE81FFF0D085E080938100F7
:107E100082E08093C00088E18093C10086E0809377
:107E2000C20080E18093C4008EE0C9D0259A86E02C
:107E300020E33CEF91E0309385002093840096BBD3
:107E4000B09BFECF1D9AA8958150A9F7CC24DD24C4
:107E500088248394B5E0AB2EA1E19A2EF3E0BF2EE7
:107E6000A2D0813461F49FD0082FAFD0023811F036
:107E7000013811F484E001C083E08DD089C08234E0
:107E800011F484E103C0853419F485E0A6D080C0E4
:107E9000853579F488D0E82EFF2485D0082F10E0AE
:107EA000102F00270E291F29000F111F8ED06801E7
:107EB0006FC0863521F484E090D080E0DECF843638
:107EC00009F040C070D06FD0082F6DD080E0C81688
:107ED00080E7D80618F4F601B7BEE895C0E0D1E017
:107EE00062D089930C17E1F7F0E0CF16F0E7DF06D8
:107EF00018F0F601B7BEE89568D007B600FCFDCFD4
:107F0000A601A0E0B1E02C9130E011968C91119780
:107F100090E0982F8827822B932B1296FA010C0160
:107F200087BEE89511244E5F5F4FF1E0A038BF0790
:107F300051F7F601A7BEE89507B600FCFDCF97BE46
:107F4000E89526C08437B1F42ED02DD0F82E2BD052
:107F50003CD0F601EF2C8F010F5F1F4F84911BD097
:107F6000EA94F801C1F70894C11CD11CFA94CF0C13
:107F7000D11C0EC0853739F428D08EE10CD085E9AC
:107F80000AD08FE07ACF813511F488E018D01DD067
:107F900080E101D065CF982F8091C00085FFFCCF94
:107FA0009093C60008958091C00087FFFCCF809118
:107FB000C00084FD01C0A8958091C6000895E0E648
:107FC000F0E098E1908380830895EDDF803219F02E
:107FD00088E0F5DFFFCF84E1DECF1F93182FE3DFCA
:107FE0001150E9F7F2DF1F91089580E0E8DFEE27F6
:047FF000FF270994CA
:027FFE00040479
:0400000300007E007B
:00000001FF
